:0400000007EF00F016
:0A00080037825FED04F088EF0BF083
:100800000001000A006400E80310272020202020B7
:100810002053746F702020202020200020202020D2
:1008200046696E616C697A65642020200020202072
:1008300020436F756E74646F776E20202000202037
:100840002020456D657267656E6379202020004821
:10085000432D53523034206661696C7572650A000D
:1008600050574D2076616C75653A257525250A200F
:100870000064697374616E63653A257520636D0A5F
:10088000002020202057656C636F6D6520202000BC
:1008900023206F66205069656365733A004F626A72
:1008A000656374697665004D697373696E670028C6
:1008B0006E756C6C290025733A20256400000600D3
:1008C000E9CF24F0EACF25F0D9CF26F0DACF27F010
:1008D000F3CF28F0F4CF29F0F6CF2AF0F7CF2BF0A2
:1008E000F8CF2CF0F5CF2DF0F2A446D0F2940B0EF9
:1008F000D76EDC0ED66E8972000EF8EC0CF0236E0B
:100900002350306E316A93EC0AF0336E2EC01FF024
:100910002FC020F033C021F0226AA8EC0BF0345035
:10092000D8A41AD030C0BEFF30C001F031C002F0F0
:10093000000E046E640E036E87EC0CF001C007F02D
:1009400002C008F0000E0A6E09681DEC0BF007C02B
:100950002EF008C02FF061D1BE50640DF3CF01F02E
:10096000F4CF02F0000E046E0368DCEC09F001C065
:100970002EF002C02FF051D19EAA91D09E9A7A0EED
:10098000AE18D8B404D05A0EAE18D8A404D0010EB4
:10099000346E000E2FD0780EAE18D8B404D0580E96
:1009A000AE18D8A404D0010E346E330E23D0630EDB
:1009B000AE18D8B404D0430EAE18D8A404D0010E9B
:1009C000346E660E17D0760EAE18D8B404D0560E1C
:1009D000AE18D8A404D0010E346E990E0BD0620E5E
:1009E000AE18D8B404D0420EAE18D8A405D0010E6B
:1009F000346ECC0EBE6E11D16E0EAE18D8B404D0CB
:100A00004E0EAE18D8A404D0010E346EBE6805D1C7
:100A1000650EAE18D8B404D0450EAE18D8A414D0C4
:100A2000FC0E8D6E000EBE6EECEC0CF03E0E1F6EDA
:100A300045EC0DF0000E3AEC0DF00B0E1F6E45EC80
:100A40000DF0D59EAB98FFD7720EAE18D8B404D077
:100A5000520EAE18D8A4E1D0020E00018119D8A41C
:100A6000DCD0000E9B6F000E8C6E050E8D6E090E95
:100A70003AEC0DF00A0E36600CD0000E206E000E1F
:100A80001F6E0CEC0DF036C01FF0206A0CEC0DF060
:100A9000C4D036C01FF0206A0CEC0DF0BED0F2A01E
:100AA000BCD0F00E8118D8B4B5D0640E00019A6F96
:100AB000FE0E8A6E81B804D0D2EC0CF0010E99D0F3
:100AC00081BA04D0D2EC0CF0020E93D081BC04D0D9
:100AD000D2EC0CF0030E8DD081BE14D0FC0E8D6EC6
:100AE000000EBE6EECEC0CF03E0E1F6E45EC0DF0F1
:100AF000000E3AEC0DF00B0E1F6E45EC0DF0D59E7E
:100B0000AB98FFD7FD0E8A6E81B804D0D2EC0CF002
:100B1000040E6FD081BA04D0D2EC0CF0050E69D06F
:100B200081BC04D0D2EC0CF0060E63D081BE13D091
:100B3000D2EC0CF0020E00018119D8A46BD0030E88
:100B4000816F0A0E016E365072EC0CF08C6E3650CE
:100B500059EC0AF05FD0FB0E8A6E81B804D0D2EC5B
:100B60000CF0070E46D081BA04D0D2EC0CF0080E7F
:100B700040D081BC04D0D2EC0CF0090E3AD081BE3A
:100B800025D0D2EC0CF0020E00018119D8A442D07D
:100B9000000E9B6F000E8C6E050E8D6E090E3AECEA
:100BA0000DF00A0E36600CD0000E206E000E1F6E87
:100BB0000CEC0DF036C01FF0206A0CEC0DF02AD0C2
:100BC00036C01FF0206A0CEC0DF024D0F70E8A6EB0
:100BD00081B804D0D2EC0CF089741CD081BA04D056
:100BE000D2EC0CF0000E05D081BC06D0D2EC0CF09B
:100BF0000A0E00019A6F0ED081BE0CD0D2EC0CF020
:100C000000018105D8A406D03250D8B403D01DEC21
:100C10000DF03206F00E8A6EF2902DC0F5FF2CC05A
:100C2000F8FF2BC0F7FF2AC0F6FF29C0F4FF28C049
:100C3000F3FF27C0DAFF26C0D9FF25C0EAFF24C092
:100C4000E9FF379211006D0E766FD4D0250E791919
:100C5000D8B404D07951A9EC0CF0CCD0000E736F4D
:100C600043D07651D96EDA6ADECF74F0DDCF75F0FD
:100C7000020E762774517511D8A41CD0AF0E746F74
:100C80007451D8A4080E756F15D074C0F6FF75C0E6
:100C9000F7FFF86A070EF76403D00800F55005D097
:100CA000F6CFE9FFF7CFEAFFEF50A9EC0CF0000117
:100CB000744B752B74C0F6FF75C0F7FFF86A070E0A
:100CC000F76403D00800F55005D0F6CFE9FFF7CF61
:100CD000EAFFEF500009D8B48DD0D7D77951A9ECED
:100CE0000CF088D0738D1BD06C2B6C05716F71C0AC
:100CF000F6FF080EF76E0800F5CF79F07951000A7B
:100D0000D8B41200640AD8B40AD00D0AD8B407D0F7
:100D10001A0AD8B4A6D7060AD8B4E4D7DFD773BD69
:100D200012D07651D96EDA6ADECF77F0DDCF78F067
:100D3000020E762778AF10D0030E7313776D781FED
:100D4000D8B0782B09D07651D96EDA6ADECF77F039
:100D5000DDCF78F0020E7627010E796F7951020D02
:100D6000F350010F716F71C0F6FF080EF76E0900A6
:100D7000F550775D0900F5507859D8A005D0792B4A
:100D8000050E7919D8A4EAD773C071F0030E711754
:100D9000D8B403D02D0EA9EC0CF079C072F025D098
:100DA0007251020DF350010F716F71C0F6FF080E02
:100DB000F76E0900F5CF62F00A00F5CF63F077C057
:100DC00060F078C061F0F4EC0AF060C067F061C0D8
:100DD00068F0000E6A6F0A0E696F46EC0BF06751FF
:100DE000300F796F7951A9EC0CF00001720772296C
:100DF000D8A4D6D700016C2B6C05716F71C0F6FFBB
:100E0000080EF76E0800F5CF79F07951D8B41200CA
:100E10001DD7140E1B6ED2D0250E1E18D8B404D0C8
:100E20001E50C5EC0CF0CAD0000E186E42D01B50FC
:100E3000D96EDA6ADECF19F0DDCF1AF0020E1B266A
:100E400019501A10D8A41BD0AF0E196E1950D8A47F
:100E5000080E1A6E14D019C0F6FF1AC0F7FFF86A10
:100E6000070EF76403D00800F55005D0F6CFE9FF70
:100E7000F7CFEAFFEF50C5EC0CF0194A1A2A19C057
:100E8000F6FF1AC0F7FFF86A070EF76403D00800F0
:100E9000F55005D0F6CFE9FFF7CFEAFFEF50000994
:100EA000D8B48CD0D8D71E50C5EC0CF087D0188C95
:100EB0001BD0132A1304166E16C0F6FF080EF76E29
:100EC0000800F5CF1EF01E50000AD8B41200640AC4
:100ED000D8B40AD00D0AD8B407D01A0AD8B4A7D704
:100EE000060AD8B4E4D7DFD718BC12D01B50D96E8D
:100EF000DA6ADECF1CF0DDCF1DF0020E1B261DAE20
:100F000010D0030E18121C6C1D1ED8B01D2A09D05B
:100F10001B50D96EDA6ADECF1CF0DDCF1DF0020E59
:100F20001B26010E1E6E1E50020DF350010F166E91
:100F300016C0F6FF080EF76E0900F5501C5C09009C
:100F4000F5501D58D8A005D01E2A050E1E18D8A48D
:100F5000EAD718C016F0030E1616D8B403D02D0E1B
:100F6000C5EC0CF01EC017F025D01750020DF35041
:100F7000010F166E16C0F6FF080EF76E0900F5CFCA
:100F800009F00A00F5CF0AF01CC007F01DC008F0F8
:100F90001DEC0BF007C00EF008C00FF0000E116E34
:100FA0000A0E106E67EC0BF00E50300F1E6E1E50C6
:100FB000C5EC0CF017061728D8A4D7D7132A1304AA
:100FC000166E16C0F6FF080EF76E0800F5CF1EF07D
:100FD0001E50D8B4120020D7000E9B6F000E8C6EEE
:100FE000050E8D6EB8EC0CF00A0E366020D09D0E0A
:100FF00000017A6F000E7C6F000E7B6F9AEC0CF094
:1010000036C07AF07B6B03EC0DF0000E25EC0DF092
:10101000A70E00017A6F000E7C6F000E7B6F9AECBA
:101020000CF036C07AF07B6B03EC0DF06FD09D0EA8
:1010300000017A6F36C07BF07C6B9AEC0CF0000EEE
:1010400025EC0DF0A70E00017A6F36C07BF07C6BAB
:101050009AEC0CF05BD0030E3364FDD7080E3364BA
:1010600004D0020E8119D8B4F6D7020E8119D8A483
:101070005BD0100E00017E6F390E7D6F0D0EE82ED5
:10108000FED77D2FFCD77E2FFAD700D00A0E0001A5
:10109000606F9B515CEC0CF07D6F090E7D6102D09E
:1010A0009B2B04D09B2B9B511EEC0AF00A0E606F09
:1010B0009B515CEC0CF08C6E090E25EC0DF00001E0
:1010C0009B5136C07DF07E6B7D5F000E7E5B7EBFE8
:1010D00006D07E5113E10A0E7D5DD8B00FD0000E10
:1010E0007B6F000E7A6F03EC0DF09B51365C7A6FCC
:1010F0007B6BD8A07B0703EC0DF008D09B51365CCE
:101100007A6F7B6BD8A07B0703EC0DF09B5136C048
:101110007DF07E6B7D5F000E7E5B7EBF05D07E51D5
:101120009AE17D05D8B097D78105D8B41200030E97
:10113000816F1200720ED36E1A0E00017F6FF80ECF
:10114000E82EFED77F2FFCD70000010EC26E0E0ED8
:10115000C16E510EC06E240EAC6E900EAB6E080EBA
:10116000B86ECF0EAF6EE10E926EF00E936E949449
:101170009490000E956EF80E966E040E896E000E19
:101180008A6E8B94000E8C6E000E8D6EF19E020E98
:101190000001806F040E7F6FBA0EE82EFED77F2FFE
:1011A000FCD7802FFAD70000040ED56E0B0ED76E39
:1011B000DC0ED66EF294F28AF290F2869D8A9E9AA6
:1011C000F28EF28CD58ECB68000EBE6E030ECA6E08
:1011D000000ECC6ECA840C0EBD6EC7EC0AF013EC88
:1011E00009F0110E0001806FFB0E7F6FF60EE82EE6
:1011F000FED77F2FFCD7802FFAD700000001810592
:10120000D8A403D085EC09F0F9D7020E8119D8A42F
:1012100003D0ECEC07F0F2D7030E8119D8A4EED777
:10122000FCEC0BF0EBD7920E0001636F000E646FC5
:1012300014EC0CF08A0E0001636F010E646F14EC65
:101240000CF0820E0001636F020E646F14EC0CF060
:10125000000E00017C6F7CB10DD0010EC6EC0BF0CE
:10126000B60E00017B6FD00EE82EFED77B2FFCD789
:10127000000016D052EC0DF0200EC6EC0BF0020E62
:10128000C6EC0BF0B60E00017B6FD00EE82EFED739
:101290007B2FFCD7000052EC0DF0200EC6EC0BF0BB
:1012A00000017C2B0E0E7C65D6D7B8EC0CF0000E3E
:1012B000C6EC0BF0340E00017B6FF10EE82EFED76A
:1012C0007B2FFCD700D0000E00017D6F100E7D61DA
:1012D0000CD04AEC0DF0B60E00017B6FD00EE82E5C
:1012E000FED77B2FFCD7000003D04EEC0DF0F3D7D8
:1012F00000017D2B1F0E7D65E9D7810E7A6F40ECD2
:101300000DF0000EC6EC0BF01200640E9A6F000E8A
:10131000326EB8EC0CF0900E00017A6F40EC0DF0DC
:10132000000E25EC0DF043D0640E9A19D8B4FCD70A
:101330000A0E9A610CD03250D8A409D09AC036F067
:101340009AC07AF07B6B03EC0DF0322A2ED00A0E95
:101350009A6122D03204D8A41FD0060E366006D07F
:1013600036500A0DF3509A25366EEAD7090E3664C8
:101370001CD00A0E606F36505CEC0CF07C6F7C5118
:10138000365C9A25366E15EC0DF036C07AF0000109
:101390007B6B03EC0DF0D9D70A0E9A19D8A405D0AF
:1013A0003250D8B402D0020E816F640E9A6F0001E1
:1013B0008105D8A41200B8D7000E066E04AE06D080
:1013C000036C041ED8B0042A010E066E02AE06D0CD
:1013D000016C021ED8B0022A010E061A000E086E19
:1013E000000E076E03500410D8B41CD0010E056E19
:1013F00004D0D89003360436052A04AEFAD7D89024
:10140000073608360350015C04500258D8A005D0B6
:101410000350015E0450025A0780D8900432033210
:10142000052EEDD70650D8B404D0076C081ED8B0EE
:10143000082A07C001F008C002F01200676F12D03E
:10144000070E8D6E1200060E8D6E1200020E8D6E4E
:101450001200030E8D6E1200010E8D6E1200050E2D
:101460008D6E1200640E0001606F67515CEC0CF031
:10147000646F656B0A0E606F67515CEC0CF0666F11
:101480006651645F000E655B6551000AD8A4E7D71A
:1014900064510A0AD8B4E0D71E0AD8B4DAD70A0AC7
:1014A000D8B4D4D7360AD8B4CED71A0AD8B4C8D745
:1014B000D6D7086E12D0070E8D6E1200060E8D6EF6
:1014C0001200020E8D6E1200030E8D6E1200010EC0
:1014D0008D6E1200050E8D6E1200640E016E0850A6
:1014E00072EC0CF0056E066A0A0E016E085072EC82
:1014F0000CF0076E0750055E000E065A0650000AF3
:10150000D8A4E8D705500A0AD8B4E1D71E0AD8B43F
:10151000DBD70A0AD8B4D5D7360AD8B4CFD71A0A37
:10152000D8B4C9D7D7D7040EBA6E000ECF6E000E4E
:10153000CE6EA190900ECD6E8280060EE82EFED764
:1015400000D0829082A2FED7CD80A1B002D09EA012
:10155000FCD7CD909EA003D00E689E9016D08C0E26
:10156000BB5C390EBC58D8A004D0390EBC6E8C0EB2
:10157000BB6EBBCF07F0BCCF08F0000E0A6E3A0E70
:10158000096E1DEC0BF007280E6E0E501200340E83
:101590000001636FF10EE82EFED7632FFCD700D059
:1015A000300EE1EC0BF00D0E0001636FFB0EE82E28
:1015B000FED7632FFCD700D0300EE1EC0BF0500EBD
:1015C000E82EFED7320EE1EC0BF0280EE1EC0BF02A
:1015D000080EE1EC0BF0B8EC0CF0060EE1EC0BF0B1
:1015E0000F0EE1EC0BF01200000E666F000E656F3F
:1015F00062516311D8B41CD0010E646F04D0D8902E
:1016000062376337642B63AFFAD7D8906537663794
:101610006251605D63516159D8A005D06251605F2D
:101620006351615B6581D89063336233642FEDD77A
:1016300065C060F066C061F01200000E0C6E000E16
:101640000B6E09500A10D8B41CD0010E0D6E04D0D8
:10165000D89009360A360D2A0AAEFAD7D8900B363A
:101660000C360950075C0A500858D8A005D009501C
:10167000075E0A50085A0B80D8900A3209320D2EA4
:10168000EDD70BC007F00CC008F0120069516A11C9
:10169000D8B418D0010E6B6F04D0D89069376A3770
:1016A0006B2B6AAFFAD76951675D6A516859D8A048
:1016B00004D06951675F6A51685BD8906A336933B7
:1016C0006B2FF1D767C067F068C068F01200105048
:1016D0001110D8B418D0010E126E04D0D890103664
:1016E0001136122A11AEFAD710500E5C11500F5855
:1016F000D8A004D010500E5E11500F5AD89011325D
:101700001032122EF1D70EC00EF00FC00FF01200E3
:10171000BE0EF66E190EF76E000EF86E00EE81F03A
:1017200010EE19F00900F5CFEEFFE550E150FAE1B7
:1017300000019B6B9A6B00EE2EF0090EEE6AE80634
:10174000FDE137903792000EF86E00019AEF08F035
:10175000010E356E600E136E1FC014F020C015F020
:1017600009EC07F021502210D8A405D04F0E136EBB
:1017700009EC07F008D0710E136E21C014F022C0DE
:1017800015F009EC07F0000E356E12000001616FD4
:10179000898661C060F0F00E000160178C500F0B5D
:1017A00060118C6E2CEC0DF061C060F00001603BAC
:1017B000F00E60178C500F0B60118C6E2CEC0DF03E
:1017C00012000001616F899661C060F0F00E0001A7
:1017D00060178C500F0B60118C6E2CEC0DF061C0FB
:1017E00060F00001603BF00E60178C500F0B601131
:1017F0008C6E2CEC0DF01200640E9A6FB8EC0CF0AD
:101800002D0E00017A6F40EC0DF0000E25EC0DF06E
:101810001C0E00017A6F40EC0DF00A0E9A19D8A444
:10182000FCD7010E816F12006451080DF350400F78
:10183000E1EC0BF0000E0001656F63516525D96E78
:10184000DA6ADF50C6EC0BF00001652B070E656508
:10185000F4D7B8EC0CF01200026E899602C001F0C9
:10186000F00E01168C500F0B01108C6E33EC0DF046
:1018700002C001F0013AF00E01168C500F0B01105E
:101880008C6E33EC0DF01200026E898602C001F0FE
:10189000F00E01168C500F0B01108C6E33EC0DF016
:1018A00002C001F0013AF00E01168C500F0B01102E
:1018B0008C6E33EC0DF01200616F080E0001626F48
:1018C000000E636FD89061356335636FD8906137D0
:1018D0006051635DD8A002D06051635F622FF2D780
:1018E00063511200026E080E036E000E046ED89053
:1018F00002340434046ED89002360150045CD8A03F
:1019000002D00150045E032EF2D7045012000150A1
:101910000302F3CF05F0F4CF06F001500402F350B8
:10192000062602500302F350062605C001F006C049
:1019300002F01200B60E6C6F7AC06DF06D51D8A433
:10194000080E6E6F7BC06FF07CC070F023EC06F069
:1019500012000001626F3550D8B405D0ACA2FED79A
:1019600062C0ADFF120000016251C6EC0BF0120024
:10197000010EE1EC0BF0050E0001626F260EE82E61
:10198000FED7622FFCD700001200036E3550D8B48A
:1019900005D0ACA2FED703C0ADFF1200035044EC4B
:1019A0000CF01200030E026E080E016E770EE82E88
:1019B000FED7012EFCD7022EFAD70000120001003C
:1019C000111B151B1100001F110A040A111F000E24
:0719D000111B110A1515009F
:1019D800010E2CEC0CF0050E036E260EE82EFED739
:1019E800032EFCD700D01200016E0144E846FC0B20
:1019F8000109C26EC282C2B2FED7C4501200BA0E2A
:101A08006C6F7AC06DF07BC06EF023EC06F01200AC
:101A1800BA0E136E1FC014F020C015F009EC07F0C1
:101A2800120052EC0DF0200EC6EC0BF052EC0DF04B
:101A3800120056EC0DF0200E44EC0CF056EC0DF0B4
:101A48001200626F00016251C00FE1EC0BF012004E
:101A580089881A0EE82EFED700D089981200898846
:101A68001A0EE82EFED700D089981200036E035094
:101A7800C00F2CEC0CF012007AC06CF023EC06F0CE
:101A880012001FC013F009EC07F012001C0EE1EC65
:101A98000BF01200180EE1EC0BF01200100EE1EC46
:0C1AA8000BF01200100E2CEC0CF01200E1
:020000040020DA
:08000000FFFFFFFFFFFFFFFF00
:020000040030CA
:0E00000000091F1EFF8381FF0FC00FE00F409D
:00000001FF
